{
  "contractName": "AvatarArtFarming",
  "abi": [
    {
      "inputs": [
        {
          "internalType": "address",
          "name": "bnuAddress",
          "type": "address"
        },
        {
          "internalType": "uint256",
          "name": "_bnuPerBlock",
          "type": "uint256"
        },
        {
          "internalType": "uint256",
          "name": "_startBlock",
          "type": "uint256"
        }
      ],
      "stateMutability": "nonpayable",
      "type": "constructor"
    },
    {
      "anonymous": false,
      "inputs": [
        {
          "indexed": true,
          "internalType": "address",
          "name": "user",
          "type": "address"
        },
        {
          "indexed": true,
          "internalType": "uint256",
          "name": "pid",
          "type": "uint256"
        },
        {
          "indexed": false,
          "internalType": "uint256",
          "name": "amount",
          "type": "uint256"
        }
      ],
      "name": "Deposit",
      "type": "event"
    },
    {
      "anonymous": false,
      "inputs": [
        {
          "indexed": true,
          "internalType": "address",
          "name": "user",
          "type": "address"
        },
        {
          "indexed": true,
          "internalType": "uint256",
          "name": "pid",
          "type": "uint256"
        },
        {
          "indexed": false,
          "internalType": "uint256",
          "name": "amount",
          "type": "uint256"
        }
      ],
      "name": "EmergencyWithdraw",
      "type": "event"
    },
    {
      "anonymous": false,
      "inputs": [
        {
          "indexed": false,
          "internalType": "address",
          "name": "oldOwner",
          "type": "address"
        },
        {
          "indexed": false,
          "internalType": "address",
          "name": "newOwner",
          "type": "address"
        }
      ],
      "name": "OwnerChanged",
      "type": "event"
    },
    {
      "anonymous": false,
      "inputs": [
        {
          "indexed": true,
          "internalType": "address",
          "name": "user",
          "type": "address"
        },
        {
          "indexed": true,
          "internalType": "uint256",
          "name": "pid",
          "type": "uint256"
        },
        {
          "indexed": false,
          "internalType": "uint256",
          "name": "amount",
          "type": "uint256"
        }
      ],
      "name": "Withdraw",
      "type": "event"
    },
    {
      "inputs": [],
      "name": "BONUS_MULTIPLIER",
      "outputs": [
        {
          "internalType": "uint256",
          "name": "",
          "type": "uint256"
        }
      ],
      "stateMutability": "view",
      "type": "function"
    },
    {
      "inputs": [],
      "name": "approveToBeOwner",
      "outputs": [],
      "stateMutability": "nonpayable",
      "type": "function"
    },
    {
      "inputs": [],
      "name": "bnu",
      "outputs": [
        {
          "internalType": "contract IERC20",
          "name": "",
          "type": "address"
        }
      ],
      "stateMutability": "view",
      "type": "function"
    },
    {
      "inputs": [],
      "name": "bnuPerBlock",
      "outputs": [
        {
          "internalType": "uint256",
          "name": "",
          "type": "uint256"
        }
      ],
      "stateMutability": "view",
      "type": "function"
    },
    {
      "inputs": [],
      "name": "getOwner",
      "outputs": [
        {
          "internalType": "address",
          "name": "",
          "type": "address"
        }
      ],
      "stateMutability": "view",
      "type": "function"
    },
    {
      "inputs": [],
      "name": "migrator",
      "outputs": [
        {
          "internalType": "contract IMigratorFarming",
          "name": "",
          "type": "address"
        }
      ],
      "stateMutability": "view",
      "type": "function"
    },
    {
      "inputs": [
        {
          "internalType": "uint256",
          "name": "",
          "type": "uint256"
        }
      ],
      "name": "poolInfo",
      "outputs": [
        {
          "internalType": "contract IERC20",
          "name": "lpToken",
          "type": "address"
        },
        {
          "internalType": "uint256",
          "name": "allocPoint",
          "type": "uint256"
        },
        {
          "internalType": "uint256",
          "name": "lastRewardBlock",
          "type": "uint256"
        },
        {
          "internalType": "uint256",
          "name": "accBnuPerShare",
          "type": "uint256"
        },
        {
          "internalType": "uint256",
          "name": "stakedTotal",
          "type": "uint256"
        }
      ],
      "stateMutability": "view",
      "type": "function"
    },
    {
      "inputs": [
        {
          "internalType": "address",
          "name": "newOwner",
          "type": "address"
        }
      ],
      "name": "requestChangeOwner",
      "outputs": [],
      "stateMutability": "nonpayable",
      "type": "function"
    },
    {
      "inputs": [],
      "name": "startBlock",
      "outputs": [
        {
          "internalType": "uint256",
          "name": "",
          "type": "uint256"
        }
      ],
      "stateMutability": "view",
      "type": "function"
    },
    {
      "inputs": [],
      "name": "totalAllocPoint",
      "outputs": [
        {
          "internalType": "uint256",
          "name": "",
          "type": "uint256"
        }
      ],
      "stateMutability": "view",
      "type": "function"
    },
    {
      "inputs": [
        {
          "internalType": "uint256",
          "name": "",
          "type": "uint256"
        },
        {
          "internalType": "address",
          "name": "",
          "type": "address"
        }
      ],
      "name": "userInfo",
      "outputs": [
        {
          "internalType": "uint256",
          "name": "amount",
          "type": "uint256"
        },
        {
          "internalType": "uint256",
          "name": "rewardDebt",
          "type": "uint256"
        }
      ],
      "stateMutability": "view",
      "type": "function"
    },
    {
      "inputs": [
        {
          "internalType": "uint256",
          "name": "multiplierNumber",
          "type": "uint256"
        }
      ],
      "name": "updateMultiplier",
      "outputs": [],
      "stateMutability": "nonpayable",
      "type": "function"
    },
    {
      "inputs": [],
      "name": "poolLength",
      "outputs": [
        {
          "internalType": "uint256",
          "name": "",
          "type": "uint256"
        }
      ],
      "stateMutability": "view",
      "type": "function"
    },
    {
      "inputs": [
        {
          "internalType": "uint256",
          "name": "_allocPoint",
          "type": "uint256"
        },
        {
          "internalType": "contract IERC20",
          "name": "_lpToken",
          "type": "address"
        },
        {
          "internalType": "bool",
          "name": "_withUpdate",
          "type": "bool"
        }
      ],
      "name": "add",
      "outputs": [],
      "stateMutability": "nonpayable",
      "type": "function"
    },
    {
      "inputs": [
        {
          "internalType": "uint256",
          "name": "_pid",
          "type": "uint256"
        },
        {
          "internalType": "uint256",
          "name": "_allocPoint",
          "type": "uint256"
        },
        {
          "internalType": "bool",
          "name": "_withUpdate",
          "type": "bool"
        }
      ],
      "name": "set",
      "outputs": [],
      "stateMutability": "nonpayable",
      "type": "function"
    },
    {
      "inputs": [
        {
          "internalType": "contract IMigratorFarming",
          "name": "_migrator",
          "type": "address"
        }
      ],
      "name": "setMigrator",
      "outputs": [],
      "stateMutability": "nonpayable",
      "type": "function"
    },
    {
      "inputs": [
        {
          "internalType": "uint256",
          "name": "_pid",
          "type": "uint256"
        }
      ],
      "name": "migrate",
      "outputs": [],
      "stateMutability": "nonpayable",
      "type": "function"
    },
    {
      "inputs": [
        {
          "internalType": "uint256",
          "name": "_from",
          "type": "uint256"
        },
        {
          "internalType": "uint256",
          "name": "_to",
          "type": "uint256"
        }
      ],
      "name": "getMultiplier",
      "outputs": [
        {
          "internalType": "uint256",
          "name": "",
          "type": "uint256"
        }
      ],
      "stateMutability": "view",
      "type": "function"
    },
    {
      "inputs": [
        {
          "internalType": "uint256",
          "name": "_pid",
          "type": "uint256"
        },
        {
          "internalType": "address",
          "name": "_user",
          "type": "address"
        }
      ],
      "name": "pendingBnu",
      "outputs": [
        {
          "internalType": "uint256",
          "name": "",
          "type": "uint256"
        }
      ],
      "stateMutability": "view",
      "type": "function"
    },
    {
      "inputs": [],
      "name": "massUpdatePools",
      "outputs": [],
      "stateMutability": "nonpayable",
      "type": "function"
    },
    {
      "inputs": [
        {
          "internalType": "uint256",
          "name": "_pid",
          "type": "uint256"
        }
      ],
      "name": "updatePool",
      "outputs": [],
      "stateMutability": "nonpayable",
      "type": "function"
    },
    {
      "inputs": [
        {
          "internalType": "uint256",
          "name": "_pid",
          "type": "uint256"
        },
        {
          "internalType": "uint256",
          "name": "_amount",
          "type": "uint256"
        }
      ],
      "name": "deposit",
      "outputs": [],
      "stateMutability": "nonpayable",
      "type": "function"
    },
    {
      "inputs": [
        {
          "internalType": "uint256",
          "name": "_pid",
          "type": "uint256"
        },
        {
          "internalType": "uint256",
          "name": "_amount",
          "type": "uint256"
        }
      ],
      "name": "withdraw",
      "outputs": [],
      "stateMutability": "nonpayable",
      "type": "function"
    },
    {
      "inputs": [
        {
          "internalType": "uint256",
          "name": "_amount",
          "type": "uint256"
        }
      ],
      "name": "enterStaking",
      "outputs": [],
      "stateMutability": "nonpayable",
      "type": "function"
    },
    {
      "inputs": [
        {
          "internalType": "uint256",
          "name": "_amount",
          "type": "uint256"
        }
      ],
      "name": "leaveStaking",
      "outputs": [],
      "stateMutability": "nonpayable",
      "type": "function"
    },
    {
      "inputs": [
        {
          "internalType": "uint256",
          "name": "_pid",
          "type": "uint256"
        }
      ],
      "name": "emergencyWithdraw",
      "outputs": [],
      "stateMutability": "nonpayable",
      "type": "function"
    }
  ],
  "bytecode": "0x6080604052600160045560006008553480156200001b57600080fd5b506040516200335438038062003354833981810160405281019062000041919062000228565b62000051620001f260201b60201c565b6000806101000a81548173ffffffffffffffffffffffffffffffffffffffff021916908373ffffffffffffffffffffffffffffffffffffffff16021790555082600260006101000a81548173ffffffffffffffffffffffffffffffffffffffff021916908373ffffffffffffffffffffffffffffffffffffffff160217905550816003819055508060098190555060066040518060a00160405280600260009054906101000a900473ffffffffffffffffffffffffffffffffffffffff1673ffffffffffffffffffffffffffffffffffffffff1681526020016103e881526020016009548152602001600081526020016000815250908060018154018082558091505060019003906000526020600020906005020160009091909190915060008201518160000160006101000a81548173ffffffffffffffffffffffffffffffffffffffff021916908373ffffffffffffffffffffffffffffffffffffffff1602179055506020820151816001015560408201518160020155606082015181600301556080820151816004015550506103e8600881905550505050620002fb565b600033905090565b6000815190506200020b81620002c7565b92915050565b6000815190506200022281620002e1565b92915050565b600080600060608486031215620002445762000243620002c2565b5b60006200025486828701620001fa565b9350506020620002678682870162000211565b92505060406200027a8682870162000211565b9150509250925092565b6000620002918262000298565b9050919050565b600073ffffffffffffffffffffffffffffffffffffffff82169050919050565b6000819050919050565b600080fd5b620002d28162000284565b8114620002de57600080fd5b50565b620002ec81620002b8565b8114620002f857600080fd5b50565b613049806200030b6000396000f3fe608060405234801561001057600080fd5b506004361061018e5760003560e01c80635312ea8e116100de5780638aa2855011610097578063c2d9503211610071578063c2d9503214610426578063de2e828814610444578063e2bbb15814610474578063e306656f146104905761018e565b80638aa28550146103a75780638dbb1e3a146103c557806393f1a40b146103f55761018e565b80635312ea8e1461030d5780635ffe614614610329578063630b5ba11461034557806364482f791461034f5780637cd07e471461036b578063893d20e8146103895761018e565b806329308d7c1161014b578063441a3e7011610125578063441a3e701461029b578063454b0608146102b757806348cd4cb1146102d357806351eb05a6146102f15761018e565b806329308d7c146102575780633ca5a2431461027557806341441d3b1461027f5761018e565b8063081e3eda146101935780631058d281146101b15780631526fe27146101cd57806317caf6f1146102015780631eaaa0451461021f57806323cf31181461023b575b600080fd5b61019b6104ac565b6040516101a89190612b5f565b60405180910390f35b6101cb60048036038101906101c6919061265e565b6104b9565b005b6101e760048036038101906101e2919061265e565b61075d565b6040516101f89594939291906129f1565b60405180910390f35b6102096107c3565b6040516102169190612b5f565b60405180910390f35b610239600480360381019061023491906126f8565b6107c9565b005b61025560048036038101906102509190612631565b610986565b005b61025f610a5f565b60405161026c91906129d6565b60405180910390f35b61027d610a85565b005b6102996004803603810190610294919061265e565b610c92565b005b6102b560048036038101906102b0919061274b565b610eff565b005b6102d160048036038101906102cc919061265e565b6111e5565b005b6102db6115c8565b6040516102e89190612b5f565b60405180910390f35b61030b6004803603810190610306919061265e565b6115ce565b005b6103276004803603810190610322919061265e565b611753565b005b610343600480360381019061033e919061265e565b611904565b005b61034d6119a3565b005b6103696004803603810190610364919061278b565b6119d6565b005b610373611b28565b6040516103809190612a44565b60405180910390f35b610391611b4e565b60405161039e9190612932565b60405180910390f35b6103af611b77565b6040516103bc9190612b5f565b60405180910390f35b6103df60048036038101906103da919061274b565b611b7d565b6040516103ec9190612b5f565b60405180910390f35b61040f600480360381019061040a91906126b8565b611ba0565b60405161041d929190612b7a565b60405180910390f35b61042e611bd1565b60405161043b9190612b5f565b60405180910390f35b61045e600480360381019061045991906126b8565b611bd7565b60405161046b9190612b5f565b60405180910390f35b61048e6004803603810190610489919061274b565b611dcc565b005b6104aa60048036038101906104a591906125aa565b61207b565b005b6000600680549050905090565b600060066000815481106104d0576104cf612e24565b5b9060005260206000209060050201905060006007600080815260200190815260200160002060006104ff6121e3565b73ffffffffffffffffffffffffffffffffffffffff1673ffffffffffffffffffffffffffffffffffffffff16815260200190815260200160002090508281600001541015610582576040517f08c379a000000000000000000000000000000000000000000000000000000000815260040161057990612adf565b60405180910390fd5b61058c60006115ce565b6000816001015464e8d4a51000846003015484600001546105ad9190612c3b565b6105b79190612c0a565b6105c19190612c95565b905060008111156105de576105dd6105d76121e3565b826121eb565b5b60008411156106b9578382600001546105f79190612c95565b82600001819055508260000160009054906101000a900473ffffffffffffffffffffffffffffffffffffffff1673ffffffffffffffffffffffffffffffffffffffff1663a9059cbb6106476121e3565b866040518363ffffffff1660e01b81526004016106659291906129ad565b602060405180830381600087803b15801561067f57600080fd5b505af1158015610693573d6000803e3d6000fd5b505050506040513d601f19601f820116820180604052508101906106b791906125d7565b505b64e8d4a51000836003015483600001546106d39190612c3b565b6106dd9190612c0a565b8260010181905550838360040160008282546106f99190612c95565b92505081905550600061070a6121e3565b73ffffffffffffffffffffffffffffffffffffffff167ff279e6a1f5e320cca91135676d9cb6e44ca8a08c0b88342bcdb1144f6511b5688660405161074f9190612b5f565b60405180910390a350505050565b6006818154811061076d57600080fd5b90600052602060002090600502016000915090508060000160009054906101000a900473ffffffffffffffffffffffffffffffffffffffff16908060010154908060020154908060030154908060040154905085565b60085481565b60008054906101000a900473ffffffffffffffffffffffffffffffffffffffff1673ffffffffffffffffffffffffffffffffffffffff166108086121e3565b73ffffffffffffffffffffffffffffffffffffffff161461085e576040517f08c379a000000000000000000000000000000000000000000000000000000000815260040161085590612a7f565b60405180910390fd5b801561086d5761086c6119a3565b5b6000600954431161088057600954610882565b435b905083600860008282546108969190612bb4565b9250508190555060066040518060a001604052808573ffffffffffffffffffffffffffffffffffffffff168152602001868152602001838152602001600081526020016000815250908060018154018082558091505060019003906000526020600020906005020160009091909190915060008201518160000160006101000a81548173ffffffffffffffffffffffffffffffffffffffff021916908373ffffffffffffffffffffffffffffffffffffffff160217905550602082015181600101556040820151816002015560608201518160030155608082015181600401555050610980612417565b50505050565b60008054906101000a900473ffffffffffffffffffffffffffffffffffffffff1673ffffffffffffffffffffffffffffffffffffffff166109c56121e3565b73ffffffffffffffffffffffffffffffffffffffff1614610a1b576040517f08c379a0000000000000000000000000000000000000000000000000000000008152600401610a1290612a7f565b60405180910390fd5b80600560006101000a81548173ffffffffffffffffffffffffffffffffffffffff021916908373ffffffffffffffffffffffffffffffffffffffff16021790555050565b600260009054906101000a900473ffffffffffffffffffffffffffffffffffffffff1681565b600073ffffffffffffffffffffffffffffffffffffffff16600160009054906101000a900473ffffffffffffffffffffffffffffffffffffffff1673ffffffffffffffffffffffffffffffffffffffff161415610b17576040517f08c379a0000000000000000000000000000000000000000000000000000000008152600401610b0e90612abf565b60405180910390fd5b600160009054906101000a900473ffffffffffffffffffffffffffffffffffffffff1673ffffffffffffffffffffffffffffffffffffffff16610b586121e3565b73ffffffffffffffffffffffffffffffffffffffff1614610bae576040517f08c379a0000000000000000000000000000000000000000000000000000000008152600401610ba590612a7f565b60405180910390fd5b60008060009054906101000a900473ffffffffffffffffffffffffffffffffffffffff169050600160009054906101000a900473ffffffffffffffffffffffffffffffffffffffff166000806101000a81548173ffffffffffffffffffffffffffffffffffffffff021916908373ffffffffffffffffffffffffffffffffffffffff1602179055507fb532073b38c83145e3e5135377a08bf9aab55bc0fd7c1179cd4fb995d2a5159c8160008054906101000a900473ffffffffffffffffffffffffffffffffffffffff16604051610c8792919061294d565b60405180910390a150565b60006006600081548110610ca957610ca8612e24565b5b906000526020600020906005020190506000600760008081526020019081526020016000206000610cd86121e3565b73ffffffffffffffffffffffffffffffffffffffff1673ffffffffffffffffffffffffffffffffffffffff1681526020019081526020016000209050610d1e60006115ce565b600081600001541115610d7f576000816001015464e8d4a5100084600301548460000154610d4c9190612c3b565b610d569190612c0a565b610d609190612c95565b90506000811115610d7d57610d7c610d766121e3565b826121eb565b5b505b6000831115610e5c578160000160009054906101000a900473ffffffffffffffffffffffffffffffffffffffff1673ffffffffffffffffffffffffffffffffffffffff166323b872dd610dd06121e3565b30866040518463ffffffff1660e01b8152600401610df093929190612976565b602060405180830381600087803b158015610e0a57600080fd5b505af1158015610e1e573d6000803e3d6000fd5b505050506040513d601f19601f82011682018060405250810190610e4291906125d7565b50828160000154610e539190612bb4565b81600001819055505b64e8d4a5100082600301548260000154610e769190612c3b565b610e809190612c0a565b816001018190555082826004016000828254610e9c9190612bb4565b925050819055506000610ead6121e3565b73ffffffffffffffffffffffffffffffffffffffff167f90890809c654f11d6e72a28fa60149770a0d11ec6c92319d6ceb2bb0a4ea1a1585604051610ef29190612b5f565b60405180910390a3505050565b6000821415610f43576040517f08c379a0000000000000000000000000000000000000000000000000000000008152600401610f3a90612aff565b60405180910390fd5b600060068381548110610f5957610f58612e24565b5b906000526020600020906005020190506000600760008581526020019081526020016000206000610f886121e3565b73ffffffffffffffffffffffffffffffffffffffff1673ffffffffffffffffffffffffffffffffffffffff1681526020019081526020016000209050828160000154101561100b576040517f08c379a000000000000000000000000000000000000000000000000000000000815260040161100290612adf565b60405180910390fd5b611014846115ce565b6000816001015464e8d4a51000846003015484600001546110359190612c3b565b61103f9190612c0a565b6110499190612c95565b905060008111156110665761106561105f6121e3565b826121eb565b5b60008411156111415783826000015461107f9190612c95565b82600001819055508260000160009054906101000a900473ffffffffffffffffffffffffffffffffffffffff1673ffffffffffffffffffffffffffffffffffffffff1663a9059cbb6110cf6121e3565b866040518363ffffffff1660e01b81526004016110ed9291906129ad565b602060405180830381600087803b15801561110757600080fd5b505af115801561111b573d6000803e3d6000fd5b505050506040513d601f19601f8201168201806040525081019061113f91906125d7565b505b64e8d4a510008360030154836000015461115b9190612c3b565b6111659190612c0a565b8260010181905550838360040160008282546111819190612c95565b92505081905550846111916121e3565b73ffffffffffffffffffffffffffffffffffffffff167ff279e6a1f5e320cca91135676d9cb6e44ca8a08c0b88342bcdb1144f6511b568866040516111d69190612b5f565b60405180910390a35050505050565b600073ffffffffffffffffffffffffffffffffffffffff16600560009054906101000a900473ffffffffffffffffffffffffffffffffffffffff1673ffffffffffffffffffffffffffffffffffffffff161415611277576040517f08c379a000000000000000000000000000000000000000000000000000000000815260040161126e90612b3f565b60405180910390fd5b60006006828154811061128d5761128c612e24565b5b9060005260206000209060050201905060008160000160009054906101000a900473ffffffffffffffffffffffffffffffffffffffff16905060008173ffffffffffffffffffffffffffffffffffffffff166370a08231306040518263ffffffff1660e01b81526004016113019190612932565b60206040518083038186803b15801561131957600080fd5b505afa15801561132d573d6000803e3d6000fd5b505050506040513d601f19601f82011682018060405250810190611351919061268b565b90508173ffffffffffffffffffffffffffffffffffffffff1663095ea7b3600560009054906101000a900473ffffffffffffffffffffffffffffffffffffffff16836040518363ffffffff1660e01b81526004016113b09291906129ad565b602060405180830381600087803b1580156113ca57600080fd5b505af11580156113de573d6000803e3d6000fd5b505050506040513d601f19601f8201168201806040525081019061140291906125d7565b506000600560009054906101000a900473ffffffffffffffffffffffffffffffffffffffff1673ffffffffffffffffffffffffffffffffffffffff1663ce5494bb846040518263ffffffff1660e01b815260040161146091906129d6565b602060405180830381600087803b15801561147a57600080fd5b505af115801561148e573d6000803e3d6000fd5b505050506040513d601f19601f820116820180604052508101906114b29190612604565b90508073ffffffffffffffffffffffffffffffffffffffff166370a08231306040518263ffffffff1660e01b81526004016114ed9190612932565b60206040518083038186803b15801561150557600080fd5b505afa158015611519573d6000803e3d6000fd5b505050506040513d601f19601f8201168201806040525081019061153d919061268b565b821461157e576040517f08c379a000000000000000000000000000000000000000000000000000000000815260040161157590612b1f565b60405180910390fd5b808460000160006101000a81548173ffffffffffffffffffffffffffffffffffffffff021916908373ffffffffffffffffffffffffffffffffffffffff1602179055505050505050565b60095481565b6000600682815481106115e4576115e3612e24565b5b90600052602060002090600502019050806002015443116116055750611750565b60008160000160009054906101000a900473ffffffffffffffffffffffffffffffffffffffff1673ffffffffffffffffffffffffffffffffffffffff166370a08231306040518263ffffffff1660e01b81526004016116649190612932565b60206040518083038186803b15801561167c57600080fd5b505afa158015611690573d6000803e3d6000fd5b505050506040513d601f19601f820116820180604052508101906116b4919061268b565b905060008114156116cf574382600201819055505050611750565b60006116df836002015443611b7d565b905060006008548460010154600354846116f99190612c3b565b6117039190612c3b565b61170d9190612c0a565b90508264e8d4a51000826117219190612c3b565b61172b9190612c0a565b846003015461173a9190612bb4565b8460030181905550438460020181905550505050505b50565b60006006828154811061176957611768612e24565b5b9060005260206000209060050201905060006007600084815260200190815260200160002060006117986121e3565b73ffffffffffffffffffffffffffffffffffffffff1673ffffffffffffffffffffffffffffffffffffffff16815260200190815260200160002090508160000160009054906101000a900473ffffffffffffffffffffffffffffffffffffffff1673ffffffffffffffffffffffffffffffffffffffff1663a9059cbb61181c6121e3565b83600001546040518363ffffffff1660e01b815260040161183e9291906129ad565b602060405180830381600087803b15801561185857600080fd5b505af115801561186c573d6000803e3d6000fd5b505050506040513d601f19601f8201168201806040525081019061189091906125d7565b508261189a6121e3565b73ffffffffffffffffffffffffffffffffffffffff167fbb757047c2b5f3974fe26b7c10f732e7bce710b0952a71082702781e62ae059583600001546040516118e39190612b5f565b60405180910390a36000816000018190555060008160010181905550505050565b60008054906101000a900473ffffffffffffffffffffffffffffffffffffffff1673ffffffffffffffffffffffffffffffffffffffff166119436121e3565b73ffffffffffffffffffffffffffffffffffffffff1614611999576040517f08c379a000000000000000000000000000000000000000000000000000000000815260040161199090612a7f565b60405180910390fd5b8060048190555050565b6000600680549050905060005b818110156119d2576119c1816115ce565b806119cb90612d7d565b90506119b0565b5050565b60008054906101000a900473ffffffffffffffffffffffffffffffffffffffff1673ffffffffffffffffffffffffffffffffffffffff16611a156121e3565b73ffffffffffffffffffffffffffffffffffffffff1614611a6b576040517f08c379a0000000000000000000000000000000000000000000000000000000008152600401611a6290612a7f565b60405180910390fd5b8015611a7a57611a796119a3565b5b8160068481548110611a8f57611a8e612e24565b5b906000526020600020906005020160010154600854611aae9190612c95565b611ab89190612bb4565b600881905550600060068481548110611ad457611ad3612e24565b5b90600052602060002090600502016001015490508260068581548110611afd57611afc612e24565b5b906000526020600020906005020160010181905550828114611b2257611b21612417565b5b50505050565b600560009054906101000a900473ffffffffffffffffffffffffffffffffffffffff1681565b60008060009054906101000a900473ffffffffffffffffffffffffffffffffffffffff16905090565b60045481565b60006004548383611b8e9190612c95565b611b989190612c3b565b905092915050565b6007602052816000526040600020602052806000526040600020600091509150508060000154908060010154905082565b60035481565b60008060068481548110611bee57611bed612e24565b5b9060005260206000209060050201905060006007600086815260200190815260200160002060008573ffffffffffffffffffffffffffffffffffffffff1673ffffffffffffffffffffffffffffffffffffffff168152602001908152602001600020905060008260030154905060008360000160009054906101000a900473ffffffffffffffffffffffffffffffffffffffff1673ffffffffffffffffffffffffffffffffffffffff166370a08231306040518263ffffffff1660e01b8152600401611cba9190612932565b60206040518083038186803b158015611cd257600080fd5b505afa158015611ce6573d6000803e3d6000fd5b505050506040513d601f19601f82011682018060405250810190611d0a919061268b565b9050836002015443118015611d20575060008114155b15611d91576000611d35856002015443611b7d565b90506000600854866001015460035484611d4f9190612c3b565b611d599190612c3b565b611d639190612c0a565b90508264e8d4a5100082611d779190612c3b565b611d819190612c0a565b84611d8c9190612bb4565b935050505b826001015464e8d4a51000838560000154611dac9190612c3b565b611db69190612c0a565b611dc09190612c95565b94505050505092915050565b6000821415611e10576040517f08c379a0000000000000000000000000000000000000000000000000000000008152600401611e0790612a9f565b60405180910390fd5b600060068381548110611e2657611e25612e24565b5b906000526020600020906005020190506000600760008581526020019081526020016000206000611e556121e3565b73ffffffffffffffffffffffffffffffffffffffff1673ffffffffffffffffffffffffffffffffffffffff1681526020019081526020016000209050611e9a846115ce565b600081600001541115611efb576000816001015464e8d4a5100084600301548460000154611ec89190612c3b565b611ed29190612c0a565b611edc9190612c95565b90506000811115611ef957611ef8611ef26121e3565b826121eb565b5b505b6000831115611fd8578160000160009054906101000a900473ffffffffffffffffffffffffffffffffffffffff1673ffffffffffffffffffffffffffffffffffffffff166323b872dd611f4c6121e3565b30866040518463ffffffff1660e01b8152600401611f6c93929190612976565b602060405180830381600087803b158015611f8657600080fd5b505af1158015611f9a573d6000803e3d6000fd5b505050506040513d601f19601f82011682018060405250810190611fbe91906125d7565b50828160000154611fcf9190612bb4565b81600001819055505b64e8d4a5100082600301548260000154611ff29190612c3b565b611ffc9190612c0a565b8160010181905550828260040160008282546120189190612bb4565b92505081905550836120286121e3565b73ffffffffffffffffffffffffffffffffffffffff167f90890809c654f11d6e72a28fa60149770a0d11ec6c92319d6ceb2bb0a4ea1a158560405161206d9190612b5f565b60405180910390a350505050565b60008054906101000a900473ffffffffffffffffffffffffffffffffffffffff1673ffffffffffffffffffffffffffffffffffffffff166120ba6121e3565b73ffffffffffffffffffffffffffffffffffffffff1614612110576040517f08c379a000000000000000000000000000000000000000000000000000000000815260040161210790612a7f565b60405180910390fd5b8073ffffffffffffffffffffffffffffffffffffffff1660008054906101000a900473ffffffffffffffffffffffffffffffffffffffff1673ffffffffffffffffffffffffffffffffffffffff16141561219f576040517f08c379a000000000000000000000000000000000000000000000000000000000815260040161219690612a5f565b60405180910390fd5b80600160006101000a81548173ffffffffffffffffffffffffffffffffffffffff021916908373ffffffffffffffffffffffffffffffffffffffff16021790555050565b600033905090565b6000600660008154811061220257612201612e24565b5b90600052602060002090600502016040518060a00160405290816000820160009054906101000a900473ffffffffffffffffffffffffffffffffffffffff1673ffffffffffffffffffffffffffffffffffffffff1673ffffffffffffffffffffffffffffffffffffffff16815260200160018201548152602001600282015481526020016003820154815260200160048201548152505090506000600260009054906101000a900473ffffffffffffffffffffffffffffffffffffffff1673ffffffffffffffffffffffffffffffffffffffff166370a08231306040518263ffffffff1660e01b81526004016122f89190612932565b60206040518083038186803b15801561231057600080fd5b505afa158015612324573d6000803e3d6000fd5b505050506040513d601f19601f82011682018060405250810190612348919061268b565b90508282608001518261235b9190612c95565b1061241157600260009054906101000a900473ffffffffffffffffffffffffffffffffffffffff1673ffffffffffffffffffffffffffffffffffffffff1663a9059cbb85856040518363ffffffff1660e01b81526004016123bd9291906129ad565b602060405180830381600087803b1580156123d757600080fd5b505af11580156123eb573d6000803e3d6000fd5b505050506040513d601f19601f8201168201806040525081019061240f91906125d7565b505b50505050565b60006006805490509050600080600190505b82811015612475576006818154811061244557612444612e24565b5b906000526020600020906005020160010154826124629190612bb4565b91508061246e90612d7d565b9050612429565b50600081146124fe5760038161248b9190612c0a565b90508060066000815481106124a3576124a2612e24565b5b9060005260206000209060050201600101546008546124c29190612c95565b6124cc9190612bb4565b6008819055508060066000815481106124e8576124e7612e24565b5b9060005260206000209060050201600101819055505b5050565b60008135905061251181612fa0565b92915050565b60008135905061252681612fb7565b92915050565b60008151905061253b81612fb7565b92915050565b60008135905061255081612fce565b92915050565b60008151905061256581612fce565b92915050565b60008135905061257a81612fe5565b92915050565b60008135905061258f81612ffc565b92915050565b6000815190506125a481612ffc565b92915050565b6000602082840312156125c0576125bf612e53565b5b60006125ce84828501612502565b91505092915050565b6000602082840312156125ed576125ec612e53565b5b60006125fb8482850161252c565b91505092915050565b60006020828403121561261a57612619612e53565b5b600061262884828501612556565b91505092915050565b60006020828403121561264757612646612e53565b5b60006126558482850161256b565b91505092915050565b60006020828403121561267457612673612e53565b5b600061268284828501612580565b91505092915050565b6000602082840312156126a1576126a0612e53565b5b60006126af84828501612595565b91505092915050565b600080604083850312156126cf576126ce612e53565b5b60006126dd85828601612580565b92505060206126ee85828601612502565b9150509250929050565b60008060006060848603121561271157612710612e53565b5b600061271f86828701612580565b935050602061273086828701612541565b925050604061274186828701612517565b9150509250925092565b6000806040838503121561276257612761612e53565b5b600061277085828601612580565b925050602061278185828601612580565b9150509250929050565b6000806000606084860312156127a4576127a3612e53565b5b60006127b286828701612580565b93505060206127c386828701612580565b92505060406127d486828701612517565b9150509250925092565b6127e781612cc9565b82525050565b6127f681612d35565b82525050565b61280581612d59565b82525050565b6000612818601a83612ba3565b915061282382612e58565b602082019050919050565b600061283b600983612ba3565b915061284682612e81565b602082019050919050565b600061285e601683612ba3565b915061286982612eaa565b602082019050919050565b6000612881600c83612ba3565b915061288c82612ed3565b602082019050919050565b60006128a4601283612ba3565b91506128af82612efc565b602082019050919050565b60006128c7601983612ba3565b91506128d282612f25565b602082019050919050565b60006128ea600c83612ba3565b91506128f582612f4e565b602082019050919050565b600061290d601483612ba3565b915061291882612f77565b602082019050919050565b61292c81612d2b565b82525050565b600060208201905061294760008301846127de565b92915050565b600060408201905061296260008301856127de565b61296f60208301846127de565b9392505050565b600060608201905061298b60008301866127de565b61299860208301856127de565b6129a56040830184612923565b949350505050565b60006040820190506129c260008301856127de565b6129cf6020830184612923565b9392505050565b60006020820190506129eb60008301846127ed565b92915050565b600060a082019050612a0660008301886127ed565b612a136020830187612923565b612a206040830186612923565b612a2d6060830185612923565b612a3a6080830184612923565b9695505050505050565b6000602082019050612a5960008301846127fc565b92915050565b60006020820190508181036000830152612a788161280b565b9050919050565b60006020820190508181036000830152612a988161282e565b9050919050565b60006020820190508181036000830152612ab881612851565b9050919050565b60006020820190508181036000830152612ad881612874565b9050919050565b60006020820190508181036000830152612af881612897565b9050919050565b60006020820190508181036000830152612b18816128ba565b9050919050565b60006020820190508181036000830152612b38816128dd565b9050919050565b60006020820190508181036000830152612b5881612900565b9050919050565b6000602082019050612b746000830184612923565b92915050565b6000604082019050612b8f6000830185612923565b612b9c6020830184612923565b9392505050565b600082825260208201905092915050565b6000612bbf82612d2b565b9150612bca83612d2b565b9250827fffffffffffffffffffffffffffffffffffffffffffffffffffffffffffffffff03821115612bff57612bfe612dc6565b5b828201905092915050565b6000612c1582612d2b565b9150612c2083612d2b565b925082612c3057612c2f612df5565b5b828204905092915050565b6000612c4682612d2b565b9150612c5183612d2b565b9250817fffffffffffffffffffffffffffffffffffffffffffffffffffffffffffffffff0483118215151615612c8a57612c89612dc6565b5b828202905092915050565b6000612ca082612d2b565b9150612cab83612d2b565b925082821015612cbe57612cbd612dc6565b5b828203905092915050565b6000612cd482612d0b565b9050919050565b60008115159050919050565b6000612cf282612cc9565b9050919050565b6000612d0482612cc9565b9050919050565b600073ffffffffffffffffffffffffffffffffffffffff82169050919050565b6000819050919050565b6000612d4082612d47565b9050919050565b6000612d5282612d0b565b9050919050565b6000612d6482612d6b565b9050919050565b6000612d7682612d0b565b9050919050565b6000612d8882612d2b565b91507fffffffffffffffffffffffffffffffffffffffffffffffffffffffffffffffff821415612dbb57612dba612dc6565b5b600182019050919050565b7f4e487b7100000000000000000000000000000000000000000000000000000000600052601160045260246000fd5b7f4e487b7100000000000000000000000000000000000000000000000000000000600052601260045260246000fd5b7f4e487b7100000000000000000000000000000000000000000000000000000000600052603260045260246000fd5b600080fd5b7f4e6577206f776e65722069732063757272656e74206f776e6572000000000000600082015250565b7f466f7262696464656e0000000000000000000000000000000000000000000000600082015250565b7f6465706f73697420424e55206279207374616b696e6700000000000000000000600082015250565b7f5a65726f20616464726573730000000000000000000000000000000000000000600082015250565b7f77697468647261773a206e6f7420676f6f640000000000000000000000000000600082015250565b7f776974686472617720424e5520627920756e7374616b696e6700000000000000600082015250565b7f6d6967726174653a206261640000000000000000000000000000000000000000600082015250565b7f6d6967726174653a206e6f206d69677261746f72000000000000000000000000600082015250565b612fa981612cc9565b8114612fb457600080fd5b50565b612fc081612cdb565b8114612fcb57600080fd5b50565b612fd781612ce7565b8114612fe257600080fd5b50565b612fee81612cf9565b8114612ff957600080fd5b50565b61300581612d2b565b811461301057600080fd5b5056fea2646970667358221220fc8f71c1fe3f0f95abd2904817a0b8b420889763c4afb16353fb4cdcc5f2743864736f6c63430008060033",
  "immutableReferences": {},
  "source": "// SPDX-License-Identifier: MIT\n\npragma solidity ^0.8.0;\n\nimport \"./core/Ownable.sol\";\nimport \"./interfaces/IMigratorFarming.sol\";\n\ncontract AvatarArtFarming is Ownable {\n    // Info of each user.\n    struct UserInfo {\n        uint256 amount;     // How many LP tokens the user has provided.\n        uint256 rewardDebt; // Reward debt. See explanation below.\n    }\n\n    // Info of each pool.\n    struct PoolInfo {\n        IERC20 lpToken;           // Address of LP token contract.\n        uint256 allocPoint;       // How many allocation points assigned to this pool. BNUs to distribute per block.\n        uint256 lastRewardBlock;  // Last block number that BNUs distribution occurs.\n        uint256 accBnuPerShare; // Accumulated BNUs per share, times 1e12. See below.\n        uint256 stakedTotal;\n    }\n\n    // The BNU TOKEN!\n    IERC20 public bnu;\n    \n    // BNU tokens created per block.\n    uint256 public bnuPerBlock;\n    // Bonus muliplier for early bnu makers.\n    uint256 public BONUS_MULTIPLIER = 1;\n    // The migrator contract. It has a lot of power. Can only be set through governance (owner).\n    IMigratorFarming public migrator;\n\n    // Info of each pool.\n    PoolInfo[] public poolInfo;\n    // Info of each user that stakes LP tokens.\n    mapping (uint256 => mapping (address => UserInfo)) public userInfo;\n    // Total allocation poitns. Must be the sum of all allocation points in all pools.\n    uint256 public totalAllocPoint = 0;\n    // The block number when BNU mining starts.\n    uint256 public startBlock;\n\n    event Deposit(address indexed user, uint256 indexed pid, uint256 amount);\n    event Withdraw(address indexed user, uint256 indexed pid, uint256 amount);\n    event EmergencyWithdraw(address indexed user, uint256 indexed pid, uint256 amount);\n\n    constructor(\n        address bnuAddress,\n        uint256 _bnuPerBlock,\n        uint256 _startBlock\n    ) {\n        bnu = IERC20(bnuAddress);\n        bnuPerBlock = _bnuPerBlock;\n        startBlock = _startBlock;\n\n        // staking pool\n        poolInfo.push(PoolInfo({\n            lpToken: bnu,\n            allocPoint: 1000,\n            lastRewardBlock: startBlock,\n            accBnuPerShare: 0,\n            stakedTotal: 0\n        }));\n\n        totalAllocPoint = 1000;\n    }\n\n    function updateMultiplier(uint256 multiplierNumber) external onlyOwner {\n        BONUS_MULTIPLIER = multiplierNumber;\n    }\n\n    function poolLength() external view returns (uint256) {\n        return poolInfo.length;\n    }\n\n    // Add a new lp to the pool. Can only be called by the owner.\n    // XXX DO NOT add the same LP token more than once. Rewards will be messed up if you do.\n    function add(uint256 _allocPoint, IERC20 _lpToken, bool _withUpdate) public onlyOwner {\n        if (_withUpdate) {\n            massUpdatePools();\n        }\n        uint256 lastRewardBlock = block.number > startBlock ? block.number : startBlock;\n        totalAllocPoint += _allocPoint;\n        poolInfo.push(PoolInfo({\n            lpToken: _lpToken,\n            allocPoint: _allocPoint,\n            lastRewardBlock: lastRewardBlock,\n            accBnuPerShare: 0,\n            stakedTotal: 0\n        }));\n        _updateStakingPool();\n    }\n\n    // Update the given pool's BNU allocation point. Can only be called by the owner.\n    function set(uint256 _pid, uint256 _allocPoint, bool _withUpdate) public onlyOwner {\n        if (_withUpdate) {\n            massUpdatePools();\n        }\n        totalAllocPoint = totalAllocPoint - poolInfo[_pid].allocPoint + _allocPoint;\n        uint256 prevAllocPoint = poolInfo[_pid].allocPoint;\n        poolInfo[_pid].allocPoint = _allocPoint;\n        if (prevAllocPoint != _allocPoint) {\n            _updateStakingPool();\n        }\n    }\n\n    function _updateStakingPool() internal {\n        uint256 length = poolInfo.length;\n        uint256 points = 0;\n        for (uint256 pid = 1; pid < length; ++pid) {\n            points = points + poolInfo[pid].allocPoint;\n        }\n        if (points != 0) {\n            points = points/3;\n            totalAllocPoint = totalAllocPoint - poolInfo[0].allocPoint + points;\n            poolInfo[0].allocPoint = points;\n        }\n    }\n\n    // Set the migrator contract. Can only be called by the owner.\n    function setMigrator(IMigratorFarming _migrator) public onlyOwner {\n        migrator = _migrator;\n    }\n\n    // Migrate lp token to another lp contract. Can be called by anyone. We trust that migrator contract is good.\n    function migrate(uint256 _pid) public {\n        require(address(migrator) != address(0), \"migrate: no migrator\");\n        PoolInfo storage pool = poolInfo[_pid];\n        IERC20 lpToken = pool.lpToken;\n        uint256 bal = lpToken.balanceOf(address(this));\n        lpToken.approve(address(migrator), bal);\n        IERC20 newLpToken = migrator.migrate(lpToken);\n        require(bal == newLpToken.balanceOf(address(this)), \"migrate: bad\");\n        pool.lpToken = newLpToken;\n    }\n\n    // Return reward multiplier over the given _from to _to block.\n    function getMultiplier(uint256 _from, uint256 _to) public view returns (uint256) {\n        return (_to - _from) * BONUS_MULTIPLIER;\n    }\n\n    // View function to see pending BNUs on frontend.\n    function pendingBnu(uint256 _pid, address _user) external view returns (uint256) {\n        PoolInfo storage pool = poolInfo[_pid];\n        UserInfo storage user = userInfo[_pid][_user];\n        uint256 accBnuPerShare = pool.accBnuPerShare;\n        uint256 lpSupply = pool.lpToken.balanceOf(address(this));\n        if (block.number > pool.lastRewardBlock && lpSupply != 0) {\n            uint256 multiplier = getMultiplier(pool.lastRewardBlock, block.number);\n            uint256 bnuReward = multiplier * bnuPerBlock * pool.allocPoint / totalAllocPoint;\n            accBnuPerShare = accBnuPerShare + (bnuReward * 1e12 / lpSupply);\n        }\n        return user.amount * accBnuPerShare / 1e12 - user.rewardDebt;\n    }\n\n    // Update reward variables for all pools. Be careful of gas spending!\n    function massUpdatePools() public {\n        uint256 length = poolInfo.length;\n        for (uint256 pid = 0; pid < length; ++pid) {\n            updatePool(pid);\n        }\n    }\n\n    // Update reward variables of the given pool to be up-to-date.\n    function updatePool(uint256 _pid) public {\n        PoolInfo storage pool = poolInfo[_pid];\n        if (block.number <= pool.lastRewardBlock) {\n            return;\n        }\n        uint256 lpSupply = pool.lpToken.balanceOf(address(this));\n        if (lpSupply == 0) {\n            pool.lastRewardBlock = block.number;\n            return;\n        }\n        uint256 multiplier = getMultiplier(pool.lastRewardBlock, block.number);\n        uint256 bnuReward = multiplier * bnuPerBlock * pool.allocPoint / totalAllocPoint;\n        pool.accBnuPerShare = pool.accBnuPerShare + (bnuReward * 1e12 / lpSupply);\n        pool.lastRewardBlock = block.number;\n    }\n\n    // Deposit LP tokens to MasterChef for BNU allocation.\n    function deposit(uint256 _pid, uint256 _amount) public {\n        require (_pid != 0, 'deposit BNU by staking');\n\n        PoolInfo storage pool = poolInfo[_pid];\n        UserInfo storage user = userInfo[_pid][_msgSender()];\n        updatePool(_pid);\n        if (user.amount > 0) {\n            uint256 pending = user.amount * pool.accBnuPerShare / 1e12 - user.rewardDebt;\n            if(pending > 0) {\n                safeRewardBnu(_msgSender(), pending);\n            }\n        }\n        if (_amount > 0) {\n            pool.lpToken.transferFrom(address(_msgSender()), address(this), _amount);\n            user.amount = user.amount + _amount;\n        }\n        user.rewardDebt = user.amount * pool.accBnuPerShare / 1e12;\n        pool.stakedTotal += _amount;\n        emit Deposit(_msgSender(), _pid, _amount);\n    }\n\n    // Withdraw LP tokens from MasterChef.\n    function withdraw(uint256 _pid, uint256 _amount) public {\n        require (_pid != 0, 'withdraw BNU by unstaking');\n\n        PoolInfo storage pool = poolInfo[_pid];\n        UserInfo storage user = userInfo[_pid][_msgSender()];\n        require(user.amount >= _amount, \"withdraw: not good\");\n        updatePool(_pid);\n        uint256 pending = user.amount * pool.accBnuPerShare / 1e12 - user.rewardDebt;\n        if(pending > 0) {\n            safeRewardBnu(_msgSender(), pending);\n        }\n        if(_amount > 0) {\n            user.amount = user.amount - _amount;\n            pool.lpToken.transfer(_msgSender(), _amount);\n        }\n        user.rewardDebt = user.amount * pool.accBnuPerShare / 1e12;\n        pool.stakedTotal -= _amount;\n        emit Withdraw(_msgSender(), _pid, _amount);\n    }\n\n    // Stake BNU tokens to MasterChef\n    function enterStaking(uint256 _amount) public {\n        PoolInfo storage pool = poolInfo[0];\n        UserInfo storage user = userInfo[0][_msgSender()];\n        updatePool(0);\n        if (user.amount > 0) {\n            uint256 pending = user.amount * pool.accBnuPerShare / 1e12 - user.rewardDebt;\n            if(pending > 0) {\n                safeRewardBnu(_msgSender(), pending);\n            }\n        }\n        if(_amount > 0) {\n            pool.lpToken.transferFrom(address(_msgSender()), address(this), _amount);\n            user.amount = user.amount + _amount;\n        }\n        user.rewardDebt = user.amount * pool.accBnuPerShare / 1e12;\n        pool.stakedTotal += _amount;\n        emit Deposit(_msgSender(), 0, _amount);\n    }\n\n    // Withdraw BNU tokens from STAKING.\n    function leaveStaking(uint256 _amount) public {\n        PoolInfo storage pool = poolInfo[0];\n        UserInfo storage user = userInfo[0][_msgSender()];\n        require(user.amount >= _amount, \"withdraw: not good\");\n        updatePool(0);\n        uint256 pending = user.amount * pool.accBnuPerShare / 1e12 - user.rewardDebt;\n        if(pending > 0) {\n            safeRewardBnu(_msgSender(), pending);\n        }\n        if(_amount > 0) {\n            user.amount = user.amount - _amount;\n            pool.lpToken.transfer(address(_msgSender()), _amount);\n        }\n        user.rewardDebt = user.amount * pool.accBnuPerShare / 1e12;\n        pool.stakedTotal -= _amount;\n        emit Withdraw(_msgSender(), 0, _amount);\n    }\n\n    // Withdraw without caring about rewards. EMERGENCY ONLY.\n    function emergencyWithdraw(uint256 _pid) public {\n        PoolInfo storage pool = poolInfo[_pid];\n        UserInfo storage user = userInfo[_pid][_msgSender()];\n        pool.lpToken.transfer(address(_msgSender()), user.amount);\n        emit EmergencyWithdraw(_msgSender(), _pid, user.amount);\n        user.amount = 0;\n        user.rewardDebt = 0;\n    }\n\n    //Make sure enough BNU to reward\n    //If not enough, reward the remained BNU amount\n    function safeRewardBnu(address _to, uint256 _amount) internal {\n        PoolInfo memory pool = poolInfo[0];\n        uint bnuBalance = bnu.balanceOf(address(this));\n        if(bnuBalance - pool.stakedTotal >= _amount){\n            bnu.transfer(_to, _amount);\n        }\n    }\n}",
  "sourcePath": "/Users/phamtinh/Downloads/avatar-art-staking/contracts/AvatarArtFarming.sol",
  "compiler": {
    "name": "solc",
    "version": "0.8.6+commit.11564f7e.Emscripten.clang"
  },
  "schemaVersion": "3.4.0",
  "updatedAt": "2021-07-05T04:42:04.261Z",
  "devdoc": {
    "kind": "dev",
    "methods": {},
    "version": 1
  },
  "userdoc": {
    "kind": "user",
    "methods": {},
    "version": 1
  }
}